:060000000A128A11FC2F18
:100F2600831203131F08C3390C389F001F1408309F
:100F36008316031788008901831603139F17083049
:100F4600F200F20BA42F831203139F149F18AC2FE9
:100F5600AD2FA92F1E08F100831603131E08F000FB
:100F660008008316031387018312031387013F309A
:100F760083160313920004308312031392000F307A
:100F86009D000A128A1193270A128A117108F60027
:100F96007008F5007608F4007508F3000310F40CE9
:100FA600F30C0310F40CF30C7308831203139B0069
:100FB6007518DE2FE22F831203131D16E52F8312F9
:100FC60003131D12F518E82FEC2F831203139D1639
:100FD600EF2F831203139D120D30F400FB30F30044
:100FE600F30BF32FF40BF32FF82FC42F0A128A11E9
:0A0FF600002883010A128A11B42FAB
:04400E00E12FFF3F60
:00000001FF
